{
  "_format": "hh-sol-artifact-1",
  "contractName": "Council",
  "sourceName": "contracts/Council.sol",
  "abi": [
    {
      "inputs": [],
      "stateMutability": "nonpayable",
      "type": "constructor"
    },
    {
      "inputs": [],
      "name": "Empty",
      "type": "error"
    },
    {
      "anonymous": false,
      "inputs": [
        {
          "indexed": false,
          "internalType": "uint256",
          "name": "amendmentId",
          "type": "uint256"
        },
        {
          "indexed": false,
          "internalType": "uint256",
          "name": "proposalId",
          "type": "uint256"
        }
      ],
      "name": "AmendmentAccepted",
      "type": "event"
    },
    {
      "anonymous": false,
      "inputs": [
        {
          "indexed": false,
          "internalType": "uint256",
          "name": "proposalId",
          "type": "uint256"
        },
        {
          "indexed": false,
          "internalType": "uint256",
          "name": "amendmentId",
          "type": "uint256"
        },
        {
          "indexed": false,
          "internalType": "address",
          "name": "proposer",
          "type": "address"
        },
        {
          "indexed": false,
          "internalType": "address[]",
          "name": "targets",
          "type": "address[]"
        },
        {
          "indexed": false,
          "internalType": "uint256[]",
          "name": "values",
          "type": "uint256[]"
        },
        {
          "indexed": false,
          "internalType": "string[]",
          "name": "signatures",
          "type": "string[]"
        },
        {
          "indexed": false,
          "internalType": "bytes[]",
          "name": "calldatas",
          "type": "bytes[]"
        },
        {
          "indexed": false,
          "internalType": "uint256",
          "name": "startBlock",
          "type": "uint256"
        },
        {
          "indexed": false,
          "internalType": "uint256",
          "name": "endBlock",
          "type": "uint256"
        },
        {
          "indexed": false,
          "internalType": "string",
          "name": "description",
          "type": "string"
        },
        {
          "indexed": false,
          "internalType": "string",
          "name": "cid",
          "type": "string"
        }
      ],
      "name": "AmendmentCreated",
      "type": "event"
    },
    {
      "anonymous": false,
      "inputs": [
        {
          "indexed": false,
          "internalType": "uint256",
          "name": "proposalId",
          "type": "uint256"
        },
        {
          "indexed": false,
          "internalType": "address",
          "name": "commenter",
          "type": "address"
        },
        {
          "indexed": false,
          "internalType": "uint256",
          "name": "parent",
          "type": "uint256"
        },
        {
          "indexed": false,
          "internalType": "string",
          "name": "cid",
          "type": "string"
        },
        {
          "indexed": false,
          "internalType": "enum ICouncil.Sentiment",
          "name": "sentiment",
          "type": "uint8"
        }
      ],
      "name": "CommentEvent",
      "type": "event"
    },
    {
      "anonymous": false,
      "inputs": [
        {
          "indexed": false,
          "internalType": "uint8",
          "name": "version",
          "type": "uint8"
        }
      ],
      "name": "Initialized",
      "type": "event"
    },
    {
      "anonymous": false,
      "inputs": [
        {
          "indexed": false,
          "internalType": "uint256",
          "name": "proposalId",
          "type": "uint256"
        },
        {
          "indexed": false,
          "internalType": "address",
          "name": "requestor",
          "type": "address"
        }
      ],
      "name": "MoveToVoteRequested",
      "type": "event"
    },
    {
      "anonymous": false,
      "inputs": [
        {
          "indexed": false,
          "internalType": "uint256",
          "name": "proposalId",
          "type": "uint256"
        }
      ],
      "name": "ProposalCanceled",
      "type": "event"
    },
    {
      "anonymous": false,
      "inputs": [
        {
          "indexed": false,
          "internalType": "uint256",
          "name": "proposalId",
          "type": "uint256"
        },
        {
          "indexed": false,
          "internalType": "address",
          "name": "proposer",
          "type": "address"
        },
        {
          "indexed": false,
          "internalType": "address[]",
          "name": "targets",
          "type": "address[]"
        },
        {
          "indexed": false,
          "internalType": "uint256[]",
          "name": "values",
          "type": "uint256[]"
        },
        {
          "indexed": false,
          "internalType": "string[]",
          "name": "signatures",
          "type": "string[]"
        },
        {
          "indexed": false,
          "internalType": "bytes[]",
          "name": "calldatas",
          "type": "bytes[]"
        },
        {
          "indexed": false,
          "internalType": "uint256",
          "name": "startBlock",
          "type": "uint256"
        },
        {
          "indexed": false,
          "internalType": "uint256",
          "name": "endBlock",
          "type": "uint256"
        },
        {
          "indexed": false,
          "internalType": "string",
          "name": "description",
          "type": "string"
        },
        {
          "indexed": false,
          "internalType": "string",
          "name": "cid",
          "type": "string"
        }
      ],
      "name": "ProposalCreated",
      "type": "event"
    },
    {
      "anonymous": false,
      "inputs": [
        {
          "indexed": false,
          "internalType": "uint256",
          "name": "proposalId",
          "type": "uint256"
        }
      ],
      "name": "ProposalExecuted",
      "type": "event"
    },
    {
      "anonymous": false,
      "inputs": [
        {
          "indexed": false,
          "internalType": "uint256",
          "name": "proposalId",
          "type": "uint256"
        },
        {
          "indexed": false,
          "internalType": "address",
          "name": "seconder",
          "type": "address"
        }
      ],
      "name": "ProposalSeconded",
      "type": "event"
    },
    {
      "anonymous": false,
      "inputs": [
        {
          "indexed": false,
          "internalType": "uint256",
          "name": "oldProposalThreshold",
          "type": "uint256"
        },
        {
          "indexed": false,
          "internalType": "uint256",
          "name": "newProposalThreshold",
          "type": "uint256"
        }
      ],
      "name": "ProposalThresholdSet",
      "type": "event"
    },
    {
      "anonymous": false,
      "inputs": [
        {
          "indexed": false,
          "internalType": "uint256",
          "name": "oldQuorumNumerator",
          "type": "uint256"
        },
        {
          "indexed": false,
          "internalType": "uint256",
          "name": "newQuorumNumerator",
          "type": "uint256"
        }
      ],
      "name": "QuorumNumeratorUpdated",
      "type": "event"
    },
    {
      "anonymous": false,
      "inputs": [
        {
          "indexed": true,
          "internalType": "address",
          "name": "voter",
          "type": "address"
        },
        {
          "indexed": false,
          "internalType": "uint256",
          "name": "proposalId",
          "type": "uint256"
        },
        {
          "indexed": false,
          "internalType": "uint8",
          "name": "support",
          "type": "uint8"
        },
        {
          "indexed": false,
          "internalType": "uint256",
          "name": "weight",
          "type": "uint256"
        },
        {
          "indexed": false,
          "internalType": "string",
          "name": "reason",
          "type": "string"
        }
      ],
      "name": "VoteCast",
      "type": "event"
    },
    {
      "anonymous": false,
      "inputs": [
        {
          "indexed": true,
          "internalType": "address",
          "name": "voter",
          "type": "address"
        },
        {
          "indexed": false,
          "internalType": "uint256",
          "name": "proposalId",
          "type": "uint256"
        },
        {
          "indexed": false,
          "internalType": "uint8",
          "name": "support",
          "type": "uint8"
        },
        {
          "indexed": false,
          "internalType": "uint256",
          "name": "weight",
          "type": "uint256"
        },
        {
          "indexed": false,
          "internalType": "string",
          "name": "reason",
          "type": "string"
        },
        {
          "indexed": false,
          "internalType": "bytes",
          "name": "params",
          "type": "bytes"
        }
      ],
      "name": "VoteCastWithParams",
      "type": "event"
    },
    {
      "anonymous": false,
      "inputs": [
        {
          "indexed": false,
          "internalType": "uint256",
          "name": "oldVotingDelay",
          "type": "uint256"
        },
        {
          "indexed": false,
          "internalType": "uint256",
          "name": "newVotingDelay",
          "type": "uint256"
        }
      ],
      "name": "VotingDelaySet",
      "type": "event"
    },
    {
      "anonymous": false,
      "inputs": [
        {
          "indexed": false,
          "internalType": "uint256",
          "name": "oldVotingPeriod",
          "type": "uint256"
        },
        {
          "indexed": false,
          "internalType": "uint256",
          "name": "newVotingPeriod",
          "type": "uint256"
        }
      ],
      "name": "VotingPeriodSet",
      "type": "event"
    },
    {
      "inputs": [],
      "name": "BALLOT_TYPEHASH",
      "outputs": [
        {
          "internalType": "bytes32",
          "name": "",
          "type": "bytes32"
        }
      ],
      "stateMutability": "view",
      "type": "function"
    },
    {
      "inputs": [],
      "name": "COUNTING_MODE",
      "outputs": [
        {
          "internalType": "string",
          "name": "",
          "type": "string"
        }
      ],
      "stateMutability": "pure",
      "type": "function"
    },
    {
      "inputs": [],
      "name": "EXTENDED_BALLOT_TYPEHASH",
      "outputs": [
        {
          "internalType": "bytes32",
          "name": "",
          "type": "bytes32"
        }
      ],
      "stateMutability": "view",
      "type": "function"
    },
    {
      "inputs": [
        {
          "internalType": "uint256",
          "name": "",
          "type": "uint256"
        }
      ],
      "name": "_proposals",
      "outputs": [
        {
          "components": [
            {
              "internalType": "uint64",
              "name": "_deadline",
              "type": "uint64"
            }
          ],
          "internalType": "struct TimersUpgradeable.BlockNumber",
          "name": "voteStart",
          "type": "tuple"
        },
        {
          "components": [
            {
              "internalType": "uint64",
              "name": "_deadline",
              "type": "uint64"
            }
          ],
          "internalType": "struct TimersUpgradeable.BlockNumber",
          "name": "voteEnd",
          "type": "tuple"
        },
        {
          "internalType": "bool",
          "name": "executed",
          "type": "bool"
        },
        {
          "internalType": "bool",
          "name": "canceled",
          "type": "bool"
        },
        {
          "internalType": "enum IGovernorUpgradeable.ProposalState",
          "name": "state",
          "type": "uint8"
        },
        {
          "internalType": "uint256",
          "name": "parent",
          "type": "uint256"
        },
        {
          "internalType": "string",
          "name": "cid",
          "type": "string"
        }
      ],
      "stateMutability": "view",
      "type": "function"
    },
    {
      "inputs": [
        {
          "internalType": "uint256",
          "name": "proposalId",
          "type": "uint256"
        },
        {
          "internalType": "uint256",
          "name": "parent",
          "type": "uint256"
        },
        {
          "internalType": "string",
          "name": "cid",
          "type": "string"
        },
        {
          "internalType": "enum ICouncil.Sentiment",
          "name": "sentiment",
          "type": "uint8"
        }
      ],
      "name": "addComment",
      "outputs": [],
      "stateMutability": "nonpayable",
      "type": "function"
    },
    {
      "inputs": [
        {
          "internalType": "uint256",
          "name": "proposalId",
          "type": "uint256"
        },
        {
          "internalType": "uint8",
          "name": "support",
          "type": "uint8"
        }
      ],
      "name": "castVote",
      "outputs": [
        {
          "internalType": "uint256",
          "name": "",
          "type": "uint256"
        }
      ],
      "stateMutability": "nonpayable",
      "type": "function"
    },
    {
      "inputs": [
        {
          "internalType": "uint256",
          "name": "proposalId",
          "type": "uint256"
        },
        {
          "internalType": "uint8",
          "name": "support",
          "type": "uint8"
        },
        {
          "internalType": "uint8",
          "name": "v",
          "type": "uint8"
        },
        {
          "internalType": "bytes32",
          "name": "r",
          "type": "bytes32"
        },
        {
          "internalType": "bytes32",
          "name": "s",
          "type": "bytes32"
        }
      ],
      "name": "castVoteBySig",
      "outputs": [
        {
          "internalType": "uint256",
          "name": "",
          "type": "uint256"
        }
      ],
      "stateMutability": "nonpayable",
      "type": "function"
    },
    {
      "inputs": [
        {
          "internalType": "uint256",
          "name": "proposalId",
          "type": "uint256"
        },
        {
          "internalType": "uint8",
          "name": "support",
          "type": "uint8"
        },
        {
          "internalType": "string",
          "name": "reason",
          "type": "string"
        }
      ],
      "name": "castVoteWithReason",
      "outputs": [
        {
          "internalType": "uint256",
          "name": "",
          "type": "uint256"
        }
      ],
      "stateMutability": "nonpayable",
      "type": "function"
    },
    {
      "inputs": [
        {
          "internalType": "uint256",
          "name": "proposalId",
          "type": "uint256"
        },
        {
          "internalType": "uint8",
          "name": "support",
          "type": "uint8"
        },
        {
          "internalType": "string",
          "name": "reason",
          "type": "string"
        },
        {
          "internalType": "bytes",
          "name": "params",
          "type": "bytes"
        }
      ],
      "name": "castVoteWithReasonAndParams",
      "outputs": [
        {
          "internalType": "uint256",
          "name": "",
          "type": "uint256"
        }
      ],
      "stateMutability": "nonpayable",
      "type": "function"
    },
    {
      "inputs": [
        {
          "internalType": "uint256",
          "name": "proposalId",
          "type": "uint256"
        },
        {
          "internalType": "uint8",
          "name": "support",
          "type": "uint8"
        },
        {
          "internalType": "string",
          "name": "reason",
          "type": "string"
        },
        {
          "internalType": "bytes",
          "name": "params",
          "type": "bytes"
        },
        {
          "internalType": "uint8",
          "name": "v",
          "type": "uint8"
        },
        {
          "internalType": "bytes32",
          "name": "r",
          "type": "bytes32"
        },
        {
          "internalType": "bytes32",
          "name": "s",
          "type": "bytes32"
        }
      ],
      "name": "castVoteWithReasonAndParamsBySig",
      "outputs": [
        {
          "internalType": "uint256",
          "name": "",
          "type": "uint256"
        }
      ],
      "stateMutability": "nonpayable",
      "type": "function"
    },
    {
      "inputs": [
        {
          "internalType": "uint256",
          "name": "proposal",
          "type": "uint256"
        },
        {
          "internalType": "uint256",
          "name": "parent",
          "type": "uint256"
        },
        {
          "internalType": "string",
          "name": "cid",
          "type": "string"
        },
        {
          "internalType": "enum ICouncil.Sentiment",
          "name": "sentiment",
          "type": "uint8"
        }
      ],
      "name": "commentHash",
      "outputs": [
        {
          "internalType": "uint256",
          "name": "hash",
          "type": "uint256"
        }
      ],
      "stateMutability": "pure",
      "type": "function"
    },
    {
      "inputs": [
        {
          "internalType": "uint256",
          "name": "",
          "type": "uint256"
        }
      ],
      "name": "comments",
      "outputs": [
        {
          "internalType": "string",
          "name": "cid",
          "type": "string"
        },
        {
          "internalType": "uint256",
          "name": "parent",
          "type": "uint256"
        },
        {
          "internalType": "uint256",
          "name": "proposal",
          "type": "uint256"
        },
        {
          "internalType": "uint256",
          "name": "upvotes",
          "type": "uint256"
        },
        {
          "internalType": "uint256",
          "name": "downvotes",
          "type": "uint256"
        },
        {
          "internalType": "enum ICouncil.Sentiment",
          "name": "sentiment",
          "type": "uint8"
        }
      ],
      "stateMutability": "view",
      "type": "function"
    },
    {
      "inputs": [
        {
          "internalType": "address[]",
          "name": "targets",
          "type": "address[]"
        },
        {
          "internalType": "uint256[]",
          "name": "values",
          "type": "uint256[]"
        },
        {
          "internalType": "bytes[]",
          "name": "calldatas",
          "type": "bytes[]"
        },
        {
          "internalType": "bytes32",
          "name": "descriptionHash",
          "type": "bytes32"
        }
      ],
      "name": "execute",
      "outputs": [
        {
          "internalType": "uint256",
          "name": "",
          "type": "uint256"
        }
      ],
      "stateMutability": "payable",
      "type": "function"
    },
    {
      "inputs": [
        {
          "internalType": "uint256",
          "name": "proposalId",
          "type": "uint256"
        }
      ],
      "name": "getProposalById",
      "outputs": [
        {
          "components": [
            {
              "components": [
                {
                  "internalType": "uint64",
                  "name": "_deadline",
                  "type": "uint64"
                }
              ],
              "internalType": "struct TimersUpgradeable.BlockNumber",
              "name": "voteStart",
              "type": "tuple"
            },
            {
              "components": [
                {
                  "internalType": "uint64",
                  "name": "_deadline",
                  "type": "uint64"
                }
              ],
              "internalType": "struct TimersUpgradeable.BlockNumber",
              "name": "voteEnd",
              "type": "tuple"
            },
            {
              "internalType": "bool",
              "name": "executed",
              "type": "bool"
            },
            {
              "internalType": "bool",
              "name": "canceled",
              "type": "bool"
            },
            {
              "internalType": "enum IGovernorUpgradeable.ProposalState",
              "name": "state",
              "type": "uint8"
            },
            {
              "internalType": "uint256",
              "name": "parent",
              "type": "uint256"
            },
            {
              "internalType": "string",
              "name": "cid",
              "type": "string"
            }
          ],
          "internalType": "struct GovernorUpgradeable.ProposalCore",
          "name": "proposal",
          "type": "tuple"
        }
      ],
      "stateMutability": "view",
      "type": "function"
    },
    {
      "inputs": [
        {
          "internalType": "address",
          "name": "account",
          "type": "address"
        },
        {
          "internalType": "uint256",
          "name": "blockNumber",
          "type": "uint256"
        }
      ],
      "name": "getVotes",
      "outputs": [
        {
          "internalType": "uint256",
          "name": "",
          "type": "uint256"
        }
      ],
      "stateMutability": "view",
      "type": "function"
    },
    {
      "inputs": [
        {
          "internalType": "address",
          "name": "account",
          "type": "address"
        },
        {
          "internalType": "uint256",
          "name": "blockNumber",
          "type": "uint256"
        },
        {
          "internalType": "bytes",
          "name": "params",
          "type": "bytes"
        }
      ],
      "name": "getVotesWithParams",
      "outputs": [
        {
          "internalType": "uint256",
          "name": "",
          "type": "uint256"
        }
      ],
      "stateMutability": "view",
      "type": "function"
    },
    {
      "inputs": [
        {
          "internalType": "address[]",
          "name": "foundingMembers",
          "type": "address[]"
        },
        {
          "internalType": "uint256",
          "name": "grantQuantity",
          "type": "uint256"
        }
      ],
      "name": "grantToFounders",
      "outputs": [],
      "stateMutability": "nonpayable",
      "type": "function"
    },
    {
      "inputs": [
        {
          "internalType": "uint256",
          "name": "proposalId",
          "type": "uint256"
        },
        {
          "internalType": "address",
          "name": "account",
          "type": "address"
        }
      ],
      "name": "hasVoted",
      "outputs": [
        {
          "internalType": "bool",
          "name": "",
          "type": "bool"
        }
      ],
      "stateMutability": "view",
      "type": "function"
    },
    {
      "inputs": [
        {
          "internalType": "uint256",
          "name": "proposalId",
          "type": "uint256"
        },
        {
          "internalType": "address[]",
          "name": "targets",
          "type": "address[]"
        },
        {
          "internalType": "uint256[]",
          "name": "values",
          "type": "uint256[]"
        },
        {
          "internalType": "bytes[]",
          "name": "calldatas",
          "type": "bytes[]"
        },
        {
          "internalType": "string",
          "name": "description",
          "type": "string"
        },
        {
          "internalType": "string",
          "name": "cid",
          "type": "string"
        }
      ],
      "name": "hashAmendment",
      "outputs": [
        {
          "internalType": "uint256",
          "name": "",
          "type": "uint256"
        }
      ],
      "stateMutability": "pure",
      "type": "function"
    },
    {
      "inputs": [
        {
          "internalType": "address[]",
          "name": "targets",
          "type": "address[]"
        },
        {
          "internalType": "uint256[]",
          "name": "values",
          "type": "uint256[]"
        },
        {
          "internalType": "bytes[]",
          "name": "calldatas",
          "type": "bytes[]"
        },
        {
          "internalType": "bytes32",
          "name": "descriptionHash",
          "type": "bytes32"
        }
      ],
      "name": "hashProposal",
      "outputs": [
        {
          "internalType": "uint256",
          "name": "",
          "type": "uint256"
        }
      ],
      "stateMutability": "pure",
      "type": "function"
    },
    {
      "inputs": [
        {
          "internalType": "contract IVotesUpgradeable",
          "name": "_token",
          "type": "address"
        }
      ],
      "name": "initialize",
      "outputs": [],
      "stateMutability": "nonpayable",
      "type": "function"
    },
    {
      "inputs": [
        {
          "internalType": "uint256",
          "name": "proposalId",
          "type": "uint256"
        }
      ],
      "name": "moveToVote",
      "outputs": [],
      "stateMutability": "nonpayable",
      "type": "function"
    },
    {
      "inputs": [],
      "name": "name",
      "outputs": [
        {
          "internalType": "string",
          "name": "",
          "type": "string"
        }
      ],
      "stateMutability": "view",
      "type": "function"
    },
    {
      "inputs": [
        {
          "internalType": "address",
          "name": "",
          "type": "address"
        },
        {
          "internalType": "address",
          "name": "",
          "type": "address"
        },
        {
          "internalType": "uint256[]",
          "name": "",
          "type": "uint256[]"
        },
        {
          "internalType": "uint256[]",
          "name": "",
          "type": "uint256[]"
        },
        {
          "internalType": "bytes",
          "name": "",
          "type": "bytes"
        }
      ],
      "name": "onERC1155BatchReceived",
      "outputs": [
        {
          "internalType": "bytes4",
          "name": "",
          "type": "bytes4"
        }
      ],
      "stateMutability": "nonpayable",
      "type": "function"
    },
    {
      "inputs": [
        {
          "internalType": "address",
          "name": "",
          "type": "address"
        },
        {
          "internalType": "address",
          "name": "",
          "type": "address"
        },
        {
          "internalType": "uint256",
          "name": "",
          "type": "uint256"
        },
        {
          "internalType": "uint256",
          "name": "",
          "type": "uint256"
        },
        {
          "internalType": "bytes",
          "name": "",
          "type": "bytes"
        }
      ],
      "name": "onERC1155Received",
      "outputs": [
        {
          "internalType": "bytes4",
          "name": "",
          "type": "bytes4"
        }
      ],
      "stateMutability": "nonpayable",
      "type": "function"
    },
    {
      "inputs": [
        {
          "internalType": "address",
          "name": "",
          "type": "address"
        },
        {
          "internalType": "address",
          "name": "",
          "type": "address"
        },
        {
          "internalType": "uint256",
          "name": "",
          "type": "uint256"
        },
        {
          "internalType": "bytes",
          "name": "",
          "type": "bytes"
        }
      ],
      "name": "onERC721Received",
      "outputs": [
        {
          "internalType": "bytes4",
          "name": "",
          "type": "bytes4"
        }
      ],
      "stateMutability": "nonpayable",
      "type": "function"
    },
    {
      "inputs": [
        {
          "internalType": "uint256",
          "name": "proposalId",
          "type": "uint256"
        }
      ],
      "name": "proposalDeadline",
      "outputs": [
        {
          "internalType": "uint256",
          "name": "",
          "type": "uint256"
        }
      ],
      "stateMutability": "view",
      "type": "function"
    },
    {
      "inputs": [
        {
          "internalType": "uint256",
          "name": "",
          "type": "uint256"
        }
      ],
      "name": "proposalIds",
      "outputs": [
        {
          "internalType": "uint256",
          "name": "",
          "type": "uint256"
        }
      ],
      "stateMutability": "view",
      "type": "function"
    },
    {
      "inputs": [
        {
          "internalType": "uint256",
          "name": "proposalId",
          "type": "uint256"
        }
      ],
      "name": "proposalSnapshot",
      "outputs": [
        {
          "internalType": "uint256",
          "name": "",
          "type": "uint256"
        }
      ],
      "stateMutability": "view",
      "type": "function"
    },
    {
      "inputs": [],
      "name": "proposalThreshold",
      "outputs": [
        {
          "internalType": "uint256",
          "name": "",
          "type": "uint256"
        }
      ],
      "stateMutability": "view",
      "type": "function"
    },
    {
      "inputs": [
        {
          "internalType": "uint256",
          "name": "proposalId",
          "type": "uint256"
        }
      ],
      "name": "proposalVotes",
      "outputs": [
        {
          "internalType": "uint256",
          "name": "againstVotes",
          "type": "uint256"
        },
        {
          "internalType": "uint256",
          "name": "forVotes",
          "type": "uint256"
        },
        {
          "internalType": "uint256",
          "name": "abstainVotes",
          "type": "uint256"
        }
      ],
      "stateMutability": "view",
      "type": "function"
    },
    {
      "inputs": [
        {
          "internalType": "address[]",
          "name": "targets",
          "type": "address[]"
        },
        {
          "internalType": "uint256[]",
          "name": "values",
          "type": "uint256[]"
        },
        {
          "internalType": "bytes[]",
          "name": "calldatas",
          "type": "bytes[]"
        },
        {
          "internalType": "string",
          "name": "description",
          "type": "string"
        },
        {
          "internalType": "string",
          "name": "cid",
          "type": "string"
        }
      ],
      "name": "propose",
      "outputs": [
        {
          "internalType": "uint256",
          "name": "",
          "type": "uint256"
        }
      ],
      "stateMutability": "nonpayable",
      "type": "function"
    },
    {
      "inputs": [
        {
          "internalType": "uint256",
          "name": "proposalId",
          "type": "uint256"
        },
        {
          "internalType": "address[]",
          "name": "targets",
          "type": "address[]"
        },
        {
          "internalType": "uint256[]",
          "name": "values",
          "type": "uint256[]"
        },
        {
          "internalType": "bytes[]",
          "name": "calldatas",
          "type": "bytes[]"
        },
        {
          "internalType": "string",
          "name": "description",
          "type": "string"
        },
        {
          "internalType": "string",
          "name": "cid",
          "type": "string"
        }
      ],
      "name": "proposeAmendment",
      "outputs": [
        {
          "internalType": "uint256",
          "name": "",
          "type": "uint256"
        }
      ],
      "stateMutability": "nonpayable",
      "type": "function"
    },
    {
      "inputs": [
        {
          "internalType": "uint256",
          "name": "blockNumber",
          "type": "uint256"
        }
      ],
      "name": "quorum",
      "outputs": [
        {
          "internalType": "uint256",
          "name": "",
          "type": "uint256"
        }
      ],
      "stateMutability": "view",
      "type": "function"
    },
    {
      "inputs": [],
      "name": "quorumDenominator",
      "outputs": [
        {
          "internalType": "uint256",
          "name": "",
          "type": "uint256"
        }
      ],
      "stateMutability": "view",
      "type": "function"
    },
    {
      "inputs": [
        {
          "internalType": "uint256",
          "name": "blockNumber",
          "type": "uint256"
        }
      ],
      "name": "quorumNumerator",
      "outputs": [
        {
          "internalType": "uint256",
          "name": "",
          "type": "uint256"
        }
      ],
      "stateMutability": "view",
      "type": "function"
    },
    {
      "inputs": [],
      "name": "quorumNumerator",
      "outputs": [
        {
          "internalType": "uint256",
          "name": "",
          "type": "uint256"
        }
      ],
      "stateMutability": "view",
      "type": "function"
    },
    {
      "inputs": [
        {
          "internalType": "address",
          "name": "target",
          "type": "address"
        },
        {
          "internalType": "uint256",
          "name": "value",
          "type": "uint256"
        },
        {
          "internalType": "bytes",
          "name": "data",
          "type": "bytes"
        }
      ],
      "name": "relay",
      "outputs": [],
      "stateMutability": "payable",
      "type": "function"
    },
    {
      "inputs": [
        {
          "internalType": "uint256",
          "name": "proposalId",
          "type": "uint256"
        }
      ],
      "name": "secondProposal",
      "outputs": [],
      "stateMutability": "nonpayable",
      "type": "function"
    },
    {
      "inputs": [
        {
          "internalType": "uint256",
          "name": "newProposalThreshold",
          "type": "uint256"
        }
      ],
      "name": "setProposalThreshold",
      "outputs": [],
      "stateMutability": "nonpayable",
      "type": "function"
    },
    {
      "inputs": [
        {
          "internalType": "uint256",
          "name": "newVotingDelay",
          "type": "uint256"
        }
      ],
      "name": "setVotingDelay",
      "outputs": [],
      "stateMutability": "nonpayable",
      "type": "function"
    },
    {
      "inputs": [
        {
          "internalType": "uint256",
          "name": "newVotingPeriod",
          "type": "uint256"
        }
      ],
      "name": "setVotingPeriod",
      "outputs": [],
      "stateMutability": "nonpayable",
      "type": "function"
    },
    {
      "inputs": [
        {
          "internalType": "uint256",
          "name": "proposalId",
          "type": "uint256"
        }
      ],
      "name": "state",
      "outputs": [
        {
          "internalType": "enum IGovernorUpgradeable.ProposalState",
          "name": "",
          "type": "uint8"
        }
      ],
      "stateMutability": "view",
      "type": "function"
    },
    {
      "inputs": [
        {
          "internalType": "bytes4",
          "name": "interfaceId",
          "type": "bytes4"
        }
      ],
      "name": "supportsInterface",
      "outputs": [
        {
          "internalType": "bool",
          "name": "",
          "type": "bool"
        }
      ],
      "stateMutability": "view",
      "type": "function"
    },
    {
      "inputs": [],
      "name": "token",
      "outputs": [
        {
          "internalType": "contract IVotesUpgradeable",
          "name": "",
          "type": "address"
        }
      ],
      "stateMutability": "view",
      "type": "function"
    },
    {
      "inputs": [
        {
          "internalType": "uint256",
          "name": "newQuorumNumerator",
          "type": "uint256"
        }
      ],
      "name": "updateQuorumNumerator",
      "outputs": [],
      "stateMutability": "nonpayable",
      "type": "function"
    },
    {
      "inputs": [],
      "name": "version",
      "outputs": [
        {
          "internalType": "string",
          "name": "",
          "type": "string"
        }
      ],
      "stateMutability": "view",
      "type": "function"
    },
    {
      "inputs": [],
      "name": "votingDelay",
      "outputs": [
        {
          "internalType": "uint256",
          "name": "",
          "type": "uint256"
        }
      ],
      "stateMutability": "view",
      "type": "function"
    },
    {
      "inputs": [],
      "name": "votingPeriod",
      "outputs": [
        {
          "internalType": "uint256",
          "name": "",
          "type": "uint256"
        }
      ],
      "stateMutability": "view",
      "type": "function"
    },
    {
      "stateMutability": "payable",
      "type": "receive"
    }
  ],
  "bytecode": "0x60806040523480156200001157600080fd5b506200001c62000022565b620000e4565b600054610100900460ff16156200008f5760405162461bcd60e51b815260206004820152602760248201527f496e697469616c697a61626c653a20636f6e747261637420697320696e697469604482015266616c697a696e6760c81b606482015260840160405180910390fd5b60005460ff9081161015620000e2576000805460ff191660ff9081179091556040519081527f7f26b83ff96e1f2b6a682f133852f6798a09c465da95921460cefb38474024989060200160405180910390a15b565b614a5480620000f46000396000f3fe6080604052600436106102b25760003560e01c80637b3c71d311610175578063c01f9e37116100dc578063deaaa7cc11610095578063ece40cc11161006f578063ece40cc114610950578063f23a6e6114610970578063f8ce560a1461099c578063fc0c546a146109bc57600080fd5b8063deaaa7cc146108dc578063ea0217cf14610910578063eb9019d41461093057600080fd5b8063c01f9e3714610803578063c28bc2fa14610823578063c4d66de814610836578063c59057e414610856578063d38761b814610876578063dd4e2ba51461089657600080fd5b8063a1d53b401161012e578063a1d53b401461074d578063a5b763891461076d578063a7713a701461078d578063ae125ff9146107a2578063b58131b0146107c2578063bc197c81146107d757600080fd5b80637b3c71d3146106875780638959dcb3146106a75780638ebb4c15146106c757806397c3d334146106f95780639a802a6d1461070d5780639b644a231461072d57600080fd5b80633bccf4fd1161021957806354fd4d50116101d257806354fd4d50146105bd57806356781388146105e75780635f398a141461060757806360c4247f1461062757806370b0f660146106475780637274307a1461066757600080fd5b80633bccf4fd1461048f5780633e4f49e6146104af578063424f5484146104dc57806343859632146104fc5780635051ab3114610547578063544ffc9c1461056757600080fd5b8063150b7a021161026b578063150b7a02146103ad5780632656227d146103e65780632d63f693146103f95780632fe3e261146104195780633656de211461044d5780633932abb11461047a57600080fd5b806301ffc9a7146102c057806302a251a3146102f5578063034201811461031857806306f3f9e61461033857806306fdde03146103585780630a4948401461037a57600080fd5b366102bb57005b005b600080fd5b3480156102cc57600080fd5b506102e06102db3660046136af565b6109f5565b60405190151581526020015b60405180910390f35b34801561030157600080fd5b5061030a610a62565b6040519081526020016102ec565b34801561032457600080fd5b5061030a6103333660046137e5565b610a72565b34801561034457600080fd5b506102b961035336600461388b565b610b6a565b34801561036457600080fd5b5061036d610bb5565b6040516102ec91906138f4565b34801561038657600080fd5b5061039a61039536600461388b565b610c47565b6040516102ec9796959493929190613931565b3480156103b957600080fd5b506103cd6103c83660046139a3565b610d38565b6040516001600160e01b031990911681526020016102ec565b61030a6103f4366004613b7f565b610d49565b34801561040557600080fd5b5061030a61041436600461388b565b610f6d565b34801561042557600080fd5b5061030a7fb3b3f3b703cd84ce352197dcff232b1b5d3cfb2025ce47cf04742d0651f1af8881565b34801561045957600080fd5b5061046d61046836600461388b565b610fa4565b6040516102ec9190613c0e565b34801561048657600080fd5b5061030a611130565b34801561049b57600080fd5b5061030a6104aa366004613c82565b61113b565b3480156104bb57600080fd5b506104cf6104ca36600461388b565b6111b3565b6040516102ec9190613cd0565b3480156104e857600080fd5b506102b96104f736600461388b565b6112c3565b34801561050857600080fd5b506102e0610517366004613cde565b6000828152610130602090815260408083206001600160a01b038516845260030190915290205460ff1692915050565b34801561055357600080fd5b5061030a610562366004613d0e565b6113b7565b34801561057357600080fd5b506105a261058236600461388b565b600090815261013060205260409020805460018201546002909201549092565b604080519384526020840192909252908201526060016102ec565b3480156105c957600080fd5b506040805180820190915260018152603160f81b602082015261036d565b3480156105f357600080fd5b5061030a610602366004613ddf565b61165b565b34801561061357600080fd5b5061030a610622366004613e0b565b61167c565b34801561063357600080fd5b5061030a61064236600461388b565b6116c6565b34801561065357600080fd5b506102b961066236600461388b565b611761565b34801561067357600080fd5b5061030a610682366004613e74565b6117a0565b34801561069357600080fd5b5061030a6106a2366004613f4d565b6117e3565b3480156106b357600080fd5b506102b96106c2366004613fa6565b61182b565b3480156106d357600080fd5b506106e76106e236600461388b565b61199d565b6040516102ec9695949392919061401c565b34801561070557600080fd5b50606461030a565b34801561071957600080fd5b5061030a610728366004614061565b611a5e565b34801561073957600080fd5b5061030a61074836600461388b565b611a75565b34801561075957600080fd5b5061030a610768366004613fa6565b611a96565b34801561077957600080fd5b5061030a610788366004613e74565b611ad0565b34801561079957600080fd5b5061030a611ced565b3480156107ae57600080fd5b506102b96107bd3660046140b9565b611d1a565b3480156107ce57600080fd5b5061030a611e47565b3480156107e357600080fd5b506103cd6107f23660046140fd565b63bc197c8160e01b95945050505050565b34801561080f57600080fd5b5061030a61081e36600461388b565b611e53565b6102b961083136600461417a565b611e82565b34801561084257600080fd5b506102b96108513660046141bd565b611f49565b34801561086257600080fd5b5061030a610871366004613b7f565b6120ac565b34801561088257600080fd5b506102b961089136600461388b565b6120c5565b3480156108a257600080fd5b506040805180820190915260208082527f737570706f72743d627261766f2671756f72756d3d666f722c6162737461696e9082015261036d565b3480156108e857600080fd5b5061030a7f150214d74d59b7d1e90c73fc22ef3d991dd0a76b046543d4d80ab92d2a50328f81565b34801561091c57600080fd5b506102b961092b36600461388b565b6121e4565b34801561093c57600080fd5b5061030a61094b3660046141da565b612223565b34801561095c57600080fd5b506102b961096b36600461388b565b612244565b34801561097c57600080fd5b506103cd61098b366004614206565b63f23a6e6160e01b95945050505050565b3480156109a857600080fd5b5061030a6109b736600461388b565b612283565b3480156109c857600080fd5b50610162546109dd906001600160a01b031681565b6040516001600160a01b0390911681526020016102ec565b60006001600160e01b0319821663248a7c9160e21b1480610a2657506001600160e01b0319821663153494ef60e21b145b80610a4157506001600160e01b03198216630271189760e51b145b80610a5c57506301ffc9a760e01b6001600160e01b03198316145b92915050565b6000610a6d60ff5490565b905090565b600080610b16610b0e7fb3b3f3b703cd84ce352197dcff232b1b5d3cfb2025ce47cf04742d0651f1af888c8c8c8c604051610aae92919061426e565b60405180910390208b80519060200120604051602001610af3959493929190948552602085019390935260ff9190911660408401526060830152608082015260a00190565b6040516020818303038152906040528051906020012061228e565b8686866122dc565b9050610b5c8a828b8b8b8080601f0160208091040260200160405190810160405280939291908181526020018383808284376000920191909152508d9250612304915050565b9a9950505050505050505050565b333014610b925760405162461bcd60e51b8152600401610b899061427e565b60405180910390fd5b610ba9565b80610ba260ce612468565b03610b9757505b610bb2816124e7565b50565b606060cb8054610bc4906142b5565b80601f0160208091040260200160405190810160405280929190818152602001828054610bf0906142b5565b8015610c3d5780601f10610c1257610100808354040283529160200191610c3d565b820191906000526020600020905b815481529060010190602001808311610c2057829003601f168201915b5050505050905090565b60cc602090815260009182526040918290208251808301845281546001600160401b0390811682528451938401909452600182015490931682526002810154600382015460048301805460ff80851695610100860482169562010000900490911693929091610cb5906142b5565b80601f0160208091040260200160405190810160405280929190818152602001828054610ce1906142b5565b8015610d2e5780601f10610d0357610100808354040283529160200191610d2e565b820191906000526020600020905b815481529060010190602001808311610d1157829003601f168201915b5050505050905087565b630a85bd0160e11b5b949350505050565b600080610d58868686866120ac565b90506000610d65826111b3565b600083815260cc60205260409020600301549091508015610e5d57600a82600d811115610d9457610d94613907565b1480610db15750600b82600d811115610daf57610daf613907565b145b80610dcd5750600982600d811115610dcb57610dcb613907565b145b15610df357600081815260cc60205260409020600201805462ff00001916620200001790555b600083815260cc602052604090819020600201805460ff19166001179055517f0139a912250b11e869d906e69078e640df5efbc1505fe320669825dcd5e7b81590610e4a9085908490918252602082015260400190565b60405180910390a1829350505050610d41565b600a82600d811115610e7157610e71613907565b1480610e8e5750600b82600d811115610e8c57610e8c613907565b145b610ee45760405162461bcd60e51b815260206004820152602160248201527f476f7665726e6f723a2070726f706f73616c206e6f74207375636365737366756044820152601b60fa1b6064820152608401610b89565b600083815260cc602052604090819020600201805460ff19166001179055517f712ae1383f79ac853f8d882153778e0260ef8f03b504e2866e0593e04d2b291f90610f329085815260200190565b60405180910390a1610f47838989898961262f565b610f5483898989896126bc565b610f61838989898961262f565b50909695505050505050565b600081815260cc602090815260408083208151928301909152546001600160401b0316908190525b6001600160401b031692915050565b6040805161010081018252600060e08201818152825282516020808201855282825283015291810182905260608082018390526080820183905260a082019290925260c0810191909152600082815260cc60209081526040918290208251610100808201855282546001600160401b0390811660e084019081528352855180860187526001850154909116815293820193909352600282015460ff80821615159583019590955292830484161515606082015292909160808401916201000090910416600d81111561107857611078613907565b600d81111561108957611089613907565b8152602001600382015481526020016004820180546110a7906142b5565b80601f01602080910402602001604051908101604052809291908181526020018280546110d3906142b5565b80156111205780601f106110f557610100808354040283529160200191611120565b820191906000526020600020905b81548152906001019060200180831161110357829003601f168201915b5050505050815250509050919050565b6000610a6d60fe5490565b604080517f150214d74d59b7d1e90c73fc22ef3d991dd0a76b046543d4d80ab92d2a50328f602082015290810186905260ff85166060820152600090819061118990610b0e90608001610af3565b90506111a6878288604051806020016040528060008152506127b2565b9150505b95945050505050565b600081815260cc60205260408120600281015460ff16156111d75750600d92915050565b6002810154610100900460ff16156111f25750600892915050565b60006111fd84610f6d565b90508060000361124f5760405162461bcd60e51b815260206004820152601d60248201527f476f7665726e6f723a20756e6b6e6f776e2070726f706f73616c2069640000006044820152606401610b89565b438110611260575060069392505050565b600061126b85611e53565b905043811061127f57506007949350505050565b611288856127d5565b80156112a857506000858152610130602052604090208054600190910154115b156112b85750600a949350505050565b506009949350505050565b6112cc3361280d565b6112e85760405162461bcd60e51b8152600401610b89906142ef565b600081815260cc6020526040902060028082015462010000900460ff16600d81111561131657611316613907565b1461135b5760405162461bcd60e51b815260206004820152601560248201527436bab9ba1031329034b7103234b9b1bab9b9b4b7b760591b6044820152606401610b89565b60028101805462ff00001916620400001790557f758e211783d2a5f06aca582eba7ea2e652d75e61ac18b0538cc0b317e0f7259d82335b604080519283526001600160a01b039091166020830152015b60405180910390a15050565b60006113c23361280d565b6113de5760405162461bcd60e51b8152600401610b89906142ef565b6113e6611e47565b6113f53361094b60014361432a565b101561145d5760405162461bcd60e51b815260206004820152603160248201527f476f7665726e6f723a2070726f706f73657220766f7465732062656c6f7720706044820152701c9bdc1bdcd85b081d1a1c995cda1bdb19607a1b6064820152608401610b89565b845186511461147e5760405162461bcd60e51b8152600401610b899061433d565b835186511461149f5760405162461bcd60e51b8152600401610b899061433d565b60006114b487878787805190602001206120ac565b600081815260cc60205260408120919250600282015462010000900460ff16600d8111156114e4576114e4613907565b1461153b5760405162461bcd60e51b815260206004820152602160248201527f476f7665726e6f723a2070726f706f73616c20616c72656164792065786973746044820152607360f81b6064820152608401610b89565b6004810161154985826143c4565b5060cd80546001810182556000919091527f83978b4c69c48dd978ab43fe30f077615294f938fb7f936d9eb340e51ea7db2e0182905560028101805462ff00001916620100001790557fb88787ccad609a4d41058c8a0928927dd2516296c139d218d1e9131c2c219bd382338a8a8c516001600160401b038111156115d0576115d0613730565b60405190808252806020026020018201604052801561160357816020015b60608152602001906001900390816115ee5790505b50604080516020808201835289546001600160401b03908116928390528351918201845260018b0154169081905291516116489796959493928f92918f908f9061454c565b60405180910390a1509695505050505050565b600080339050610d41848285604051806020016040528060008152506127b2565b6000803390506111a687828888888080601f0160208091040260200160405190810160405280939291908181526020018383808284376000920191909152508a9250612304915050565b610196546000908082036116df57505061019554919050565b60006101966116ef60018461432a565b815481106116ff576116ff614605565b60009182526020918290206040805180820190915291015463ffffffff8116808352600160201b9091046001600160e01b0316928201929092529150841061175557602001516001600160e01b03169392505050565b610d4161019685612887565b3330146117805760405162461bcd60e51b8152600401610b899061427e565b611797565b8061179060ce612468565b0361178557505b610bb281612947565b60008686868686866040516020016117bd9695949392919061461b565b6040516020818303038152906040528051906020012060001c90505b9695505050505050565b6000803390506117d986828787878080601f0160208091040260200160405190810160405280939291908181526020018383808284376000920191909152506127b292505050565b6118343361280d565b6118505760405162461bcd60e51b8152600401610b89906142ef565b600261185b85610fa4565b60800151600d81111561187057611870613907565b1461188d5760405162461bcd60e51b8152600401610b8990614682565b8215806118b4575060008381526101c86020526040902080546118af906142b5565b151590505b6118f15760405162461bcd60e51b815260206004820152600e60248201526d1d5b9adb9bdddb881c185c995b9d60921b6044820152606401610b89565b60006118ff85858585611a96565b60008181526101c86020526040902060028101879055600181018690559091508061192a85826143c4565b50828160050160006101000a81548160ff0219169083600581111561195157611951613907565b02179055507fab9cbbc55d154611333c315f451d82f88c84b9254dec96cd2800ae487b17bb6e863387878760405161198d9594939291906146c7565b60405180910390a1505050505050565b6101c8602052600090815260409020805481906119b9906142b5565b80601f01602080910402602001604051908101604052809291908181526020018280546119e5906142b5565b8015611a325780601f10611a0757610100808354040283529160200191611a32565b820191906000526020600020905b815481529060010190602001808311611a1557829003601f168201915b505050600184015460028501546003860154600487015460059097015495969295919450925060ff1686565b6000611a6b848484612988565b90505b9392505050565b60cd8181548110611a8557600080fd5b600091825260209091200154905081565b600084848484604051602001611aaf9493929190614703565b60408051601f19818403018152919052805160209091012095945050505050565b6000611adb3361280d565b611af75760405162461bcd60e51b8152600401610b89906142ef565b8451865114611b185760405162461bcd60e51b8152600401610b899061433d565b8351865114611b395760405162461bcd60e51b8152600401610b899061433d565b600087815260cc6020526040902060028082015462010000900460ff16600d811115611b6757611b67613907565b14611b845760405162461bcd60e51b8152600401610b8990614682565b6000611b948989898989896117a0565b600081815260cc60205260408120919250600282015462010000900460ff16600d811115611bc457611bc4613907565b14611c115760405162461bcd60e51b815260206004820152601860248201527f616d656e646d656e7420616c72656164792065786973747300000000000000006044820152606401610b89565b60028101805462ff000019166201000017905560048101611c3286826143c4565b506002830180546203000062ff0000199091161790557f700333eab3015dc440dd21d32df65a85b7c7a09a4e45ad54be8e79d0c802f5388a83338c8c8e516001600160401b03811115611c8757611c87613730565b604051908082528060200260200182016040528015611cba57816020015b6060815260200190600190039081611ca55790505b508d6000808f8f604051611cd89b9a99989796959493929190614731565b60405180910390a15098975050505050505050565b6101965460009015611d1257611d046101966129ff565b6001600160e01b0316905090565b506101955490565b6101c75460ff1615611d6e5760405162461bcd60e51b815260206004820152601f60248201527f466f756e646572206772616e7420616c726561647920636f6d706c65746564006044820152606401610b89565b6101c7805460ff1916600117905560005b8251811015611e42576101625483516001600160a01b039091169063a9059cbb90859084908110611db257611db2614605565b6020026020010151846040518363ffffffff1660e01b8152600401611dec9291906001600160a01b03929092168252602082015260400190565b6020604051808303816000875af1158015611e0b573d6000803e3d6000fd5b505050506040513d601f19601f82011682018060405250810190611e2f91906147e8565b5080611e3a8161480a565b915050611d7f565b505050565b6000610a6d6101005490565b600081815260cc602090815260408083208151928301909152600101546001600160401b031690819052610f95565b333014611ea15760405162461bcd60e51b8152600401610b899061427e565b611eb8565b80611eb160ce612468565b03611ea657505b600080856001600160a01b0316858585604051611ed692919061426e565b60006040518083038185875af1925050503d8060008114611f13576040519150601f19603f3d011682016040523d82523d6000602084013e611f18565b606091505b5091509150611f4082826040518060600160405280602881526020016149d060289139612a38565b50505050505050565b600054610100900460ff1615808015611f695750600054600160ff909116105b80611f835750303b158015611f83575060005460ff166001145b611fe65760405162461bcd60e51b815260206004820152602e60248201527f496e697469616c697a61626c653a20636f6e747261637420697320616c72656160448201526d191e481a5b9a5d1a585b1a5e995960921b6064820152608401610b89565b6000805460ff191660011790558015612009576000805461ff0019166101001790555b6120316040518060400160405280600781526020016610dbdd5b98da5b60ca1b815250612a51565b612040600161c4e06000612aa8565b612048612ada565b61205182612b03565b61205b6004612b33565b6101c7805460ff1916905580156120a8576000805461ff0019169055604051600181527f7f26b83ff96e1f2b6a682f133852f6798a09c465da95921460cefb3847402498906020016113ab565b5050565b600084848484604051602001611aaf9493929190614823565b6120ce3361280d565b6120ea5760405162461bcd60e51b8152600401610b89906142ef565b600081815260cc602052604090206001600282015462010000900460ff16600d81111561211957612119613907565b148061214357506004600282015462010000900460ff16600d81111561214157612141613907565b145b61214c57600080fd5b6001600282015462010000900460ff16600d81111561216d5761216d613907565b036121825761217d826002612b63565b6121bc565b6004600282015462010000900460ff16600d8111156121a3576121a3613907565b036121bc576121b3826007612b63565b6121bc81612ba0565b7f299432bdda7d2f4b8ed54b73f54bf39049288dd18fb7c4e59b703e789809eec78233611392565b3330146122035760405162461bcd60e51b8152600401610b899061427e565b61221a565b8061221360ce612468565b0361220857505b610bb281612c1f565b6000611a6e838361223f60408051602081019091526000815290565b612988565b3330146122635760405162461bcd60e51b8152600401610b899061427e565b61227a565b8061227360ce612468565b0361226857505b610bb281612cc0565b6000610a5c82612d03565b6000610a5c61229b612d92565b8360405161190160f01b6020820152602281018390526042810182905260009060620160405160208183030381529060405280519060200120905092915050565b60008060006122ed87878787612e0d565b915091506122fa81612ed1565b5095945050505050565b600085815260cc60205260408120600761231d886111b3565b600d81111561232e5761232e613907565b146123875760405162461bcd60e51b815260206004820152602360248201527f476f7665726e6f723a20766f7465206e6f742063757272656e746c792061637460448201526269766560e81b6064820152608401610b89565b604080516020810190915281546001600160401b0316908190526000906123b090889086612988565b90506123bf888888848861301b565b835160000361241457866001600160a01b03167fb8e138887d0aa13bab447e82de9d5c1777041ecd21ca36ba824ff1e6c07ddda489888489604051612407949392919061486e565b60405180910390a26111a6565b866001600160a01b03167fe2babfbac5889a709b63bb7f598b324e08bc5a4fb9ec647fb3cbc9ec07eb87128988848989604051612455959493929190614896565b60405180910390a2979650505050505050565b60006124838254600f81810b600160801b909204900b131590565b156124a157604051631ed9509560e11b815260040160405180910390fd5b508054600f0b6000818152600180840160205260408220805492905583546fffffffffffffffffffffffffffffffff191692016001600160801b03169190911790915590565b606481111561256a5760405162461bcd60e51b815260206004820152604360248201527f476f7665726e6f72566f74657351756f72756d4672616374696f6e3a2071756f60448201527f72756d4e756d657261746f72206f7665722071756f72756d44656e6f6d696e616064820152623a37b960e91b608482015260a401610b89565b6000612574611ced565b90508015801590612586575061019654155b156125eb57604080518082019091526000815261019690602081016125aa84613196565b6001600160e01b039081169091528254600181018455600093845260209384902083519490930151909116600160201b0263ffffffff909316929092179101555b6125f761019683613203565b505060408051828152602081018490527f0553476bf02ef2726e8ce5ced78d63e26e602e4a2257b1f559418e24b463399791016113ab565b6126b5565b84518110156126b357306001600160a01b031685828151811061265957612659614605565b60200260200101516001600160a01b0316036126a3576126a383828151811061268457612684614605565b60200260200101518051906020012060ce61323990919063ffffffff16565b6126ac8161480a565b9050612634565b505b5050505050565b60006040518060600160405280602781526020016149f860279139905060005b8551811015611f40576000808783815181106126fa576126fa614605565b60200260200101516001600160a01b031687848151811061271d5761271d614605565b602002602001015187858151811061273757612737614605565b602002602001015160405161274c91906148dc565b60006040518083038185875af1925050503d8060008114612789576040519150601f19603f3d011682016040523d82523d6000602084013e61278e565b606091505b509150915061279e828286612a38565b505050806127ab9061480a565b90506126dc565b60006111aa858585856127d060408051602081019091526000815290565b612304565b600081815261013060205260408120600281015460018201546127f891906148f8565b6128046109b785610f6d565b11159392505050565b610162546040516370a0823160e01b81526001600160a01b03838116600483015260009283929116906370a0823190602401602060405180830381865afa15801561285c573d6000803e3d6000fd5b505050506040513d601f19601f82011682018060405250810190612880919061490b565b1192915050565b60004382106128d85760405162461bcd60e51b815260206004820181905260248201527f436865636b706f696e74733a20626c6f636b206e6f7420796574206d696e65646044820152606401610b89565b60006128e383613275565b845490915060006128f6868483856132da565b905080156129315761291b8661290d60018461432a565b600091825260209091200190565b54600160201b90046001600160e01b0316612934565b60005b6001600160e01b03169695505050505050565b60fe5460408051918252602082018390527fc565b045403dc03c2eea82b81a0465edad9e2e7fc4d97e11421c209da93d7a93910160405180910390a160fe55565b61016254604051630748d63560e31b81526001600160a01b038581166004830152602482018590526000921690633a46b1a890604401602060405180830381865afa1580156129db573d6000803e3d6000fd5b505050506040513d601f19601f82011682018060405250810190611a6b919061490b565b80546000908015612a2f57612a198361290d60018461432a565b54600160201b90046001600160e01b0316611a6e565b60009392505050565b60608315612a47575081611a6e565b611a6e8383613338565b600054610100900460ff16612a785760405162461bcd60e51b8152600401610b8990614924565b612a9f81612a9a6040805180820190915260018152603160f81b602082015290565b613362565b610bb2816133a3565b600054610100900460ff16612acf5760405162461bcd60e51b8152600401610b8990614924565b611e428383836133d6565b600054610100900460ff16612b015760405162461bcd60e51b8152600401610b8990614924565b565b600054610100900460ff16612b2a5760405162461bcd60e51b8152600401610b8990614924565b610bb281613418565b600054610100900460ff16612b5a5760405162461bcd60e51b8152600401610b8990614924565b610bb281613462565b600082815260cc6020526040902060028101805483919062ff000019166201000083600d811115612b9657612b96613907565b0217905550505050565b6000612bb2612bad611130565b613489565b612bbb43613489565b612bc5919061496f565b90506000612bd4612bad610a62565b612bde908361496f565b835467ffffffffffffffff19166001600160401b03841617845590506001830180546001600160401b03831667ffffffffffffffff19909116179055505050565b60008111612c7f5760405162461bcd60e51b815260206004820152602760248201527f476f7665726e6f7253657474696e67733a20766f74696e6720706572696f6420604482015266746f6f206c6f7760c81b6064820152608401610b89565b60ff5460408051918252602082018390527f7e3f7f0708a84de9203036abaa450dccc85ad5ff52f78c170f3edb55cf5e8828910160405180910390a160ff55565b6101005460408051918252602082018390527fccb45da8d5717e6c4544694297c4ba5cf151d455c9bb0ed4fc7a38411bc05461910160405180910390a161010055565b60006064612d10836116c6565b61016254604051632394e7a360e21b8152600481018690526001600160a01b0390911690638e539e8c90602401602060405180830381865afa158015612d5a573d6000803e3d6000fd5b505050506040513d601f19601f82011682018060405250810190612d7e919061490b565b612d889190614996565b610a5c91906149ad565b6000610a6d7f8b73c3c69bb8fe3d512ecc4cf759cc79239f7b179b0ffacaa9a75d522b39400f612dc160655490565b6066546040805160208101859052908101839052606081018290524660808201523060a082015260009060c0016040516020818303038152906040528051906020012090509392505050565b6000807f7fffffffffffffffffffffffffffffff5d576e7357a4501ddfe92f46681b20a0831115612e445750600090506003612ec8565b6040805160008082526020820180845289905260ff881692820192909252606081018690526080810185905260019060a0016020604051602081039080840390855afa158015612e98573d6000803e3d6000fd5b5050604051601f1901519150506001600160a01b038116612ec157600060019250925050612ec8565b9150600090505b94509492505050565b6000816004811115612ee557612ee5613907565b03612eed5750565b6001816004811115612f0157612f01613907565b03612f4e5760405162461bcd60e51b815260206004820152601860248201527f45434453413a20696e76616c6964207369676e617475726500000000000000006044820152606401610b89565b6002816004811115612f6257612f62613907565b03612faf5760405162461bcd60e51b815260206004820152601f60248201527f45434453413a20696e76616c6964207369676e6174757265206c656e677468006044820152606401610b89565b6003816004811115612fc357612fc3613907565b03610bb25760405162461bcd60e51b815260206004820152602260248201527f45434453413a20696e76616c6964207369676e6174757265202773272076616c604482015261756560f01b6064820152608401610b89565b6000858152610130602090815260408083206001600160a01b0388168452600381019092529091205460ff16156130a45760405162461bcd60e51b815260206004820152602760248201527f476f7665726e6f72566f74696e6753696d706c653a20766f746520616c726561604482015266191e4818d85cdd60ca1b6064820152608401610b89565b6001600160a01b03851660009081526003820160205260409020805460ff1916600117905560ff84166130f057828160000160008282546130e591906148f8565b909155506126b39050565b60001960ff85160161311057828160010160008282546130e591906148f8565b60011960ff85160161313057828160020160008282546130e591906148f8565b60405162461bcd60e51b815260206004820152603560248201527f476f7665726e6f72566f74696e6753696d706c653a20696e76616c69642076616044820152746c756520666f7220656e756d20566f74655479706560581b6064820152608401610b89565b60006001600160e01b038211156131ff5760405162461bcd60e51b815260206004820152602760248201527f53616665436173743a2076616c756520646f65736e27742066697420696e20326044820152663234206269747360c81b6064820152608401610b89565b5090565b6000806132218461321343613275565b61321c86613196565b6134f1565b6001600160e01b0391821693501690505b9250929050565b8154600160801b90819004600f0b6000818152600180860160205260409091209390935583546001600160801b03908116939091011602179055565b600063ffffffff8211156131ff5760405162461bcd60e51b815260206004820152602660248201527f53616665436173743a2076616c756520646f65736e27742066697420696e203360448201526532206269747360d01b6064820152608401610b89565b60005b818310156133305760006132f18484613694565b60008781526020902090915063ffffffff86169082015463ffffffff16111561331c5780925061332a565b6133278160016148f8565b93505b506132dd565b509392505050565b8151156133485781518083602001fd5b8060405162461bcd60e51b8152600401610b8991906138f4565b600054610100900460ff166133895760405162461bcd60e51b8152600401610b8990614924565b815160209283012081519190920120606591909155606655565b600054610100900460ff166133ca5760405162461bcd60e51b8152600401610b8990614924565b60cb6120a882826143c4565b600054610100900460ff166133fd5760405162461bcd60e51b8152600401610b8990614924565b61340683612947565b61340f82612c1f565b611e4281612cc0565b600054610100900460ff1661343f5760405162461bcd60e51b8152600401610b8990614924565b61016280546001600160a01b0319166001600160a01b0392909216919091179055565b600054610100900460ff16610ba95760405162461bcd60e51b8152600401610b8990614924565b60006001600160401b038211156131ff5760405162461bcd60e51b815260206004820152602660248201527f53616665436173743a2076616c756520646f65736e27742066697420696e203660448201526534206269747360d01b6064820152608401610b89565b82546000908190801561363757600061350f8761290d60018561432a565b60408051808201909152905463ffffffff808216808452600160201b9092046001600160e01b0316602084015291925090871610156135905760405162461bcd60e51b815260206004820152601760248201527f436865636b706f696e743a20696e76616c6964206b65790000000000000000006044820152606401610b89565b805163ffffffff8088169116036135d857846135b18861290d60018661432a565b80546001600160e01b0392909216600160201b0263ffffffff909216919091179055613627565b6040805180820190915263ffffffff80881682526001600160e01b0380881660208085019182528b54600181018d5560008d81529190912094519151909216600160201b029216919091179101555b60200151925083915061368c9050565b50506040805180820190915263ffffffff80851682526001600160e01b0380851660208085019182528854600181018a5560008a815291822095519251909316600160201b0291909316179201919091559050815b935093915050565b60006136a360028484186149ad565b611a6e908484166148f8565b6000602082840312156136c157600080fd5b81356001600160e01b031981168114611a6e57600080fd5b803560ff811681146136ea57600080fd5b919050565b60008083601f84011261370157600080fd5b5081356001600160401b0381111561371857600080fd5b60208301915083602082850101111561323257600080fd5b634e487b7160e01b600052604160045260246000fd5b604051601f8201601f191681016001600160401b038111828210171561376e5761376e613730565b604052919050565b600082601f83011261378757600080fd5b81356001600160401b038111156137a0576137a0613730565b6137b3601f8201601f1916602001613746565b8181528460208386010111156137c857600080fd5b816020850160208301376000918101602001919091529392505050565b60008060008060008060008060e0898b03121561380157600080fd5b8835975061381160208a016136d9565b965060408901356001600160401b038082111561382d57600080fd5b6138398c838d016136ef565b909850965060608b013591508082111561385257600080fd5b5061385f8b828c01613776565b94505061386e60808a016136d9565b925060a0890135915060c089013590509295985092959890939650565b60006020828403121561389d57600080fd5b5035919050565b60005b838110156138bf5781810151838201526020016138a7565b50506000910152565b600081518084526138e08160208601602086016138a4565b601f01601f19169290920160200192915050565b602081526000611a6e60208301846138c8565b634e487b7160e01b600052602160045260246000fd5b600e811061392d5761392d613907565b9052565b87516001600160401b0390811682528751166020820152851515604082015284151560608201526000613967608083018661391d565b8360a083015260e060c083015261398160e08301846138c8565b9998505050505050505050565b6001600160a01b0381168114610bb257600080fd5b600080600080608085870312156139b957600080fd5b84356139c48161398e565b935060208501356139d48161398e565b92506040850135915060608501356001600160401b038111156139f657600080fd5b613a0287828801613776565b91505092959194509250565b60006001600160401b03821115613a2757613a27613730565b5060051b60200190565b600082601f830112613a4257600080fd5b81356020613a57613a5283613a0e565b613746565b82815260059290921b84018101918181019086841115613a7657600080fd5b8286015b84811015613a9a578035613a8d8161398e565b8352918301918301613a7a565b509695505050505050565b600082601f830112613ab657600080fd5b81356020613ac6613a5283613a0e565b82815260059290921b84018101918181019086841115613ae557600080fd5b8286015b84811015613a9a5780358352918301918301613ae9565b600082601f830112613b1157600080fd5b81356020613b21613a5283613a0e565b82815260059290921b84018101918181019086841115613b4057600080fd5b8286015b84811015613a9a5780356001600160401b03811115613b635760008081fd5b613b718986838b0101613776565b845250918301918301613b44565b60008060008060808587031215613b9557600080fd5b84356001600160401b0380821115613bac57600080fd5b613bb888838901613a31565b95506020870135915080821115613bce57600080fd5b613bda88838901613aa5565b94506040870135915080821115613bf057600080fd5b50613bfd87828801613b00565b949793965093946060013593505050565b6020815260006001600160401b038084515116602084015280602085015151166040840152506040830151151560608301526060830151151560808301526080830151613c5e60a084018261391d565b5060a083015160c083015260c083015160e080840152610d416101008401826138c8565b600080600080600060a08688031215613c9a57600080fd5b85359450613caa602087016136d9565b9350613cb8604087016136d9565b94979396509394606081013594506080013592915050565b60208101610a5c828461391d565b60008060408385031215613cf157600080fd5b823591506020830135613d038161398e565b809150509250929050565b600080600080600060a08688031215613d2657600080fd5b85356001600160401b0380821115613d3d57600080fd5b613d4989838a01613a31565b96506020880135915080821115613d5f57600080fd5b613d6b89838a01613aa5565b95506040880135915080821115613d8157600080fd5b613d8d89838a01613b00565b94506060880135915080821115613da357600080fd5b613daf89838a01613776565b93506080880135915080821115613dc557600080fd5b50613dd288828901613776565b9150509295509295909350565b60008060408385031215613df257600080fd5b82359150613e02602084016136d9565b90509250929050565b600080600080600060808688031215613e2357600080fd5b85359450613e33602087016136d9565b935060408601356001600160401b0380821115613e4f57600080fd5b613e5b89838a016136ef565b90955093506060880135915080821115613dc557600080fd5b60008060008060008060c08789031215613e8d57600080fd5b8635955060208701356001600160401b0380821115613eab57600080fd5b613eb78a838b01613a31565b96506040890135915080821115613ecd57600080fd5b613ed98a838b01613aa5565b95506060890135915080821115613eef57600080fd5b613efb8a838b01613b00565b94506080890135915080821115613f1157600080fd5b613f1d8a838b01613776565b935060a0890135915080821115613f3357600080fd5b50613f4089828a01613776565b9150509295509295509295565b60008060008060608587031215613f6357600080fd5b84359350613f73602086016136d9565b925060408501356001600160401b03811115613f8e57600080fd5b613f9a878288016136ef565b95989497509550505050565b60008060008060808587031215613fbc57600080fd5b843593506020850135925060408501356001600160401b03811115613fe057600080fd5b613fec87828801613776565b92505060608501356006811061400157600080fd5b939692955090935050565b6006811061392d5761392d613907565b60c08152600061402f60c08301896138c8565b905086602083015285604083015284606083015283608083015261405660a083018461400c565b979650505050505050565b60008060006060848603121561407657600080fd5b83356140818161398e565b92506020840135915060408401356001600160401b038111156140a357600080fd5b6140af86828701613776565b9150509250925092565b600080604083850312156140cc57600080fd5b82356001600160401b038111156140e257600080fd5b6140ee85828601613a31565b95602094909401359450505050565b600080600080600060a0868803121561411557600080fd5b85356141208161398e565b945060208601356141308161398e565b935060408601356001600160401b038082111561414c57600080fd5b61415889838a01613aa5565b9450606088013591508082111561416e57600080fd5b613daf89838a01613aa5565b6000806000806060858703121561419057600080fd5b843561419b8161398e565b93506020850135925060408501356001600160401b03811115613f8e57600080fd5b6000602082840312156141cf57600080fd5b8135611a6e8161398e565b600080604083850312156141ed57600080fd5b82356141f88161398e565b946020939093013593505050565b600080600080600060a0868803121561421e57600080fd5b85356142298161398e565b945060208601356142398161398e565b9350604086013592506060860135915060808601356001600160401b0381111561426257600080fd5b613dd288828901613776565b8183823760009101908152919050565b60208082526018908201527f476f7665726e6f723a206f6e6c79476f7665726e616e63650000000000000000604082015260600190565b600181811c908216806142c957607f821691505b6020821081036142e957634e487b7160e01b600052602260045260246000fd5b50919050565b6020808252600b908201526a566f74657273206f6e6c7960a81b604082015260600190565b634e487b7160e01b600052601160045260246000fd5b81810381811115610a5c57610a5c614314565b60208082526021908201527f476f7665726e6f723a20696e76616c69642070726f706f73616c206c656e67746040820152600d60fb1b606082015260800190565b601f821115611e4257600081815260208120601f850160051c810160208610156143a55750805b601f850160051c820191505b818110156126b3578281556001016143b1565b81516001600160401b038111156143dd576143dd613730565b6143f1816143eb84546142b5565b8461437e565b602080601f831160018114614426576000841561440e5750858301515b600019600386901b1c1916600185901b1785556126b3565b600085815260208120601f198616915b8281101561445557888601518255948401946001909101908401614436565b50858210156144735787850151600019600388901b60f8161c191681555b5050505050600190811b01905550565b600081518084526020808501945080840160005b838110156144bc5781516001600160a01b031687529582019590820190600101614497565b509495945050505050565b600081518084526020808501945080840160005b838110156144bc578151875295820195908201906001016144db565b600081518084526020808501808196508360051b8101915082860160005b8581101561453f57828403895261452d8483516138c8565b98850198935090840190600101614515565b5091979650505050505050565b8a81526001600160a01b038a166020820152610140604082018190526000906145778382018c614483565b9050828103606084015261458b818b6144c7565b9050828103608084015261459f818a6144f7565b905082810360a08401526145b381896144f7565b6001600160401b0388811660c0860152871660e085015283810361010085015290506145df81866138c8565b90508281036101208401526145f481856138c8565b9d9c50505050505050505050505050565b634e487b7160e01b600052603260045260246000fd5b86815260c06020820152600061463460c0830188614483565b828103604084015261464681886144c7565b9050828103606084015261465a81876144f7565b9050828103608084015261466e81866138c8565b905082810360a084015261398181856138c8565b60208082526025908201527f756e6b6e6f776e2070726f706f73616c206f72206e6f7420696e2d646973637560408201526439b9b4b7b760d91b606082015260800190565b85815260018060a01b038516602082015283604082015260a0606082015260006146f460a08301856138c8565b90506117d9608083018461400c565b84815283602082015260806040820152600061472260808301856138c8565b90506111aa606083018461400c565b8b8152602081018b90526001600160a01b038a166040820152610160606082018190526000906147638382018c614483565b90508281036080840152614777818b6144c7565b905082810360a084015261478b818a6144f7565b905082810360c084015261479f81896144f7565b90508660e0840152856101008401528281036101208401526147c181866138c8565b90508281036101408401526147d681856138c8565b9e9d5050505050505050505050505050565b6000602082840312156147fa57600080fd5b81518015158114611a6e57600080fd5b60006001820161481c5761481c614314565b5060010190565b6080815260006148366080830187614483565b828103602084015261484881876144c7565b9050828103604084015261485c81866144f7565b91505082606083015295945050505050565b84815260ff841660208201528260408201526080606082015260006117d960808301846138c8565b85815260ff8516602082015283604082015260a0606082015260006148be60a08301856138c8565b82810360808401526148d081856138c8565b98975050505050505050565b600082516148ee8184602087016138a4565b9190910192915050565b80820180821115610a5c57610a5c614314565b60006020828403121561491d57600080fd5b5051919050565b6020808252602b908201527f496e697469616c697a61626c653a20636f6e7472616374206973206e6f74206960408201526a6e697469616c697a696e6760a81b606082015260800190565b6001600160401b0381811683821601908082111561498f5761498f614314565b5092915050565b8082028115828204841417610a5c57610a5c614314565b6000826149ca57634e487b7160e01b600052601260045260246000fd5b50049056fe476f7665726e6f723a2072656c617920726576657274656420776974686f7574206d657373616765476f7665726e6f723a2063616c6c20726576657274656420776974686f7574206d657373616765a26469706673582212206b9f37a1667ae3a9e10ba7a24c985d63c6e93568b41307a32d9554c2c837e8f964736f6c63430008110033",
  "linkReferences": {},
  "deployedLinkReferences": {}
}