{
  "_format": "hh-sol-artifact-1",
  "contractName": "CouncilToken",
  "sourceName": "contracts/CouncilToken.sol",
  "abi": [
    {
      "inputs": [],
      "stateMutability": "nonpayable",
      "type": "constructor"
    },
    {
      "anonymous": false,
      "inputs": [
        {
          "indexed": true,
          "internalType": "address",
          "name": "owner",
          "type": "address"
        },
        {
          "indexed": true,
          "internalType": "address",
          "name": "spender",
          "type": "address"
        },
        {
          "indexed": false,
          "internalType": "uint256",
          "name": "value",
          "type": "uint256"
        }
      ],
      "name": "Approval",
      "type": "event"
    },
    {
      "anonymous": false,
      "inputs": [
        {
          "indexed": true,
          "internalType": "address",
          "name": "delegator",
          "type": "address"
        },
        {
          "indexed": true,
          "internalType": "address",
          "name": "fromDelegate",
          "type": "address"
        },
        {
          "indexed": true,
          "internalType": "address",
          "name": "toDelegate",
          "type": "address"
        }
      ],
      "name": "DelegateChanged",
      "type": "event"
    },
    {
      "anonymous": false,
      "inputs": [
        {
          "indexed": true,
          "internalType": "address",
          "name": "delegate",
          "type": "address"
        },
        {
          "indexed": false,
          "internalType": "uint256",
          "name": "previousBalance",
          "type": "uint256"
        },
        {
          "indexed": false,
          "internalType": "uint256",
          "name": "newBalance",
          "type": "uint256"
        }
      ],
      "name": "DelegateVotesChanged",
      "type": "event"
    },
    {
      "anonymous": false,
      "inputs": [
        {
          "indexed": true,
          "internalType": "address",
          "name": "from",
          "type": "address"
        },
        {
          "indexed": true,
          "internalType": "address",
          "name": "to",
          "type": "address"
        },
        {
          "indexed": false,
          "internalType": "uint256",
          "name": "value",
          "type": "uint256"
        }
      ],
      "name": "Transfer",
      "type": "event"
    },
    {
      "inputs": [],
      "name": "DOMAIN_SEPARATOR",
      "outputs": [
        {
          "internalType": "bytes32",
          "name": "",
          "type": "bytes32"
        }
      ],
      "stateMutability": "view",
      "type": "function"
    },
    {
      "inputs": [
        {
          "internalType": "address",
          "name": "owner",
          "type": "address"
        },
        {
          "internalType": "address",
          "name": "spender",
          "type": "address"
        }
      ],
      "name": "allowance",
      "outputs": [
        {
          "internalType": "uint256",
          "name": "",
          "type": "uint256"
        }
      ],
      "stateMutability": "view",
      "type": "function"
    },
    {
      "inputs": [
        {
          "internalType": "address",
          "name": "spender",
          "type": "address"
        },
        {
          "internalType": "uint256",
          "name": "amount",
          "type": "uint256"
        }
      ],
      "name": "approve",
      "outputs": [
        {
          "internalType": "bool",
          "name": "",
          "type": "bool"
        }
      ],
      "stateMutability": "nonpayable",
      "type": "function"
    },
    {
      "inputs": [
        {
          "internalType": "address",
          "name": "account",
          "type": "address"
        }
      ],
      "name": "balanceOf",
      "outputs": [
        {
          "internalType": "uint256",
          "name": "",
          "type": "uint256"
        }
      ],
      "stateMutability": "view",
      "type": "function"
    },
    {
      "inputs": [
        {
          "internalType": "address",
          "name": "account",
          "type": "address"
        },
        {
          "internalType": "uint32",
          "name": "pos",
          "type": "uint32"
        }
      ],
      "name": "checkpoints",
      "outputs": [
        {
          "components": [
            {
              "internalType": "uint32",
              "name": "fromBlock",
              "type": "uint32"
            },
            {
              "internalType": "uint224",
              "name": "votes",
              "type": "uint224"
            }
          ],
          "internalType": "struct ERC20Votes.Checkpoint",
          "name": "",
          "type": "tuple"
        }
      ],
      "stateMutability": "view",
      "type": "function"
    },
    {
      "inputs": [],
      "name": "decimals",
      "outputs": [
        {
          "internalType": "uint8",
          "name": "",
          "type": "uint8"
        }
      ],
      "stateMutability": "view",
      "type": "function"
    },
    {
      "inputs": [
        {
          "internalType": "address",
          "name": "spender",
          "type": "address"
        },
        {
          "internalType": "uint256",
          "name": "subtractedValue",
          "type": "uint256"
        }
      ],
      "name": "decreaseAllowance",
      "outputs": [
        {
          "internalType": "bool",
          "name": "",
          "type": "bool"
        }
      ],
      "stateMutability": "nonpayable",
      "type": "function"
    },
    {
      "inputs": [
        {
          "internalType": "address",
          "name": "delegatee",
          "type": "address"
        }
      ],
      "name": "delegate",
      "outputs": [],
      "stateMutability": "nonpayable",
      "type": "function"
    },
    {
      "inputs": [
        {
          "internalType": "address",
          "name": "delegatee",
          "type": "address"
        },
        {
          "internalType": "uint256",
          "name": "nonce",
          "type": "uint256"
        },
        {
          "internalType": "uint256",
          "name": "expiry",
          "type": "uint256"
        },
        {
          "internalType": "uint8",
          "name": "v",
          "type": "uint8"
        },
        {
          "internalType": "bytes32",
          "name": "r",
          "type": "bytes32"
        },
        {
          "internalType": "bytes32",
          "name": "s",
          "type": "bytes32"
        }
      ],
      "name": "delegateBySig",
      "outputs": [],
      "stateMutability": "nonpayable",
      "type": "function"
    },
    {
      "inputs": [
        {
          "internalType": "address",
          "name": "account",
          "type": "address"
        }
      ],
      "name": "delegates",
      "outputs": [
        {
          "internalType": "address",
          "name": "",
          "type": "address"
        }
      ],
      "stateMutability": "view",
      "type": "function"
    },
    {
      "inputs": [
        {
          "internalType": "uint256",
          "name": "blockNumber",
          "type": "uint256"
        }
      ],
      "name": "getPastTotalSupply",
      "outputs": [
        {
          "internalType": "uint256",
          "name": "",
          "type": "uint256"
        }
      ],
      "stateMutability": "view",
      "type": "function"
    },
    {
      "inputs": [
        {
          "internalType": "address",
          "name": "account",
          "type": "address"
        },
        {
          "internalType": "uint256",
          "name": "blockNumber",
          "type": "uint256"
        }
      ],
      "name": "getPastVotes",
      "outputs": [
        {
          "internalType": "uint256",
          "name": "",
          "type": "uint256"
        }
      ],
      "stateMutability": "view",
      "type": "function"
    },
    {
      "inputs": [
        {
          "internalType": "address",
          "name": "account",
          "type": "address"
        }
      ],
      "name": "getVotes",
      "outputs": [
        {
          "internalType": "uint256",
          "name": "",
          "type": "uint256"
        }
      ],
      "stateMutability": "view",
      "type": "function"
    },
    {
      "inputs": [
        {
          "internalType": "address",
          "name": "spender",
          "type": "address"
        },
        {
          "internalType": "uint256",
          "name": "addedValue",
          "type": "uint256"
        }
      ],
      "name": "increaseAllowance",
      "outputs": [
        {
          "internalType": "bool",
          "name": "",
          "type": "bool"
        }
      ],
      "stateMutability": "nonpayable",
      "type": "function"
    },
    {
      "inputs": [
        {
          "internalType": "contract Council",
          "name": "councilContract",
          "type": "address"
        },
        {
          "internalType": "uint256",
          "name": "votingTokensToMint",
          "type": "uint256"
        }
      ],
      "name": "initialize",
      "outputs": [],
      "stateMutability": "nonpayable",
      "type": "function"
    },
    {
      "inputs": [],
      "name": "name",
      "outputs": [
        {
          "internalType": "string",
          "name": "",
          "type": "string"
        }
      ],
      "stateMutability": "view",
      "type": "function"
    },
    {
      "inputs": [
        {
          "internalType": "address",
          "name": "owner",
          "type": "address"
        }
      ],
      "name": "nonces",
      "outputs": [
        {
          "internalType": "uint256",
          "name": "",
          "type": "uint256"
        }
      ],
      "stateMutability": "view",
      "type": "function"
    },
    {
      "inputs": [
        {
          "internalType": "address",
          "name": "account",
          "type": "address"
        }
      ],
      "name": "numCheckpoints",
      "outputs": [
        {
          "internalType": "uint32",
          "name": "",
          "type": "uint32"
        }
      ],
      "stateMutability": "view",
      "type": "function"
    },
    {
      "inputs": [
        {
          "internalType": "address",
          "name": "owner",
          "type": "address"
        },
        {
          "internalType": "address",
          "name": "spender",
          "type": "address"
        },
        {
          "internalType": "uint256",
          "name": "value",
          "type": "uint256"
        },
        {
          "internalType": "uint256",
          "name": "deadline",
          "type": "uint256"
        },
        {
          "internalType": "uint8",
          "name": "v",
          "type": "uint8"
        },
        {
          "internalType": "bytes32",
          "name": "r",
          "type": "bytes32"
        },
        {
          "internalType": "bytes32",
          "name": "s",
          "type": "bytes32"
        }
      ],
      "name": "permit",
      "outputs": [],
      "stateMutability": "nonpayable",
      "type": "function"
    },
    {
      "inputs": [],
      "name": "symbol",
      "outputs": [
        {
          "internalType": "string",
          "name": "",
          "type": "string"
        }
      ],
      "stateMutability": "view",
      "type": "function"
    },
    {
      "inputs": [],
      "name": "totalSupply",
      "outputs": [
        {
          "internalType": "uint256",
          "name": "",
          "type": "uint256"
        }
      ],
      "stateMutability": "view",
      "type": "function"
    },
    {
      "inputs": [
        {
          "internalType": "address",
          "name": "to",
          "type": "address"
        },
        {
          "internalType": "uint256",
          "name": "amount",
          "type": "uint256"
        }
      ],
      "name": "transfer",
      "outputs": [
        {
          "internalType": "bool",
          "name": "",
          "type": "bool"
        }
      ],
      "stateMutability": "nonpayable",
      "type": "function"
    },
    {
      "inputs": [
        {
          "internalType": "address",
          "name": "from",
          "type": "address"
        },
        {
          "internalType": "address",
          "name": "to",
          "type": "address"
        },
        {
          "internalType": "uint256",
          "name": "amount",
          "type": "uint256"
        }
      ],
      "name": "transferFrom",
      "outputs": [
        {
          "internalType": "bool",
          "name": "",
          "type": "bool"
        }
      ],
      "stateMutability": "nonpayable",
      "type": "function"
    }
  ],
  "bytecode": "0x610140604052600a805460ff191690553480156200001c57600080fd5b506040518060400160405280600c81526020016b21b7bab731b4b62a37b5b2b760a11b81525080604051806040016040528060018152602001603160f81b8152506040518060400160405280600c81526020016b21b7bab731b4b62a37b5b2b760a11b8152506040518060400160405280600381526020016243544b60e81b8152508160039081620000af9190620001ff565b506004620000be8282620001ff565b5050825160208085019190912083518483012060e08290526101008190524660a0818152604080517f8b73c3c69bb8fe3d512ecc4cf759cc79239f7b179b0ffacaa9a75d522b39400f81880181905281830187905260608201869052608082019490945230818401528151808203909301835260c0019052805194019390932091935091906080523060c0526101205250620002cb9350505050565b634e487b7160e01b600052604160045260246000fd5b600181811c908216806200018557607f821691505b602082108103620001a657634e487b7160e01b600052602260045260246000fd5b50919050565b601f821115620001fa57600081815260208120601f850160051c81016020861015620001d55750805b601f850160051c820191505b81811015620001f657828155600101620001e1565b5050505b505050565b81516001600160401b038111156200021b576200021b6200015a565b62000233816200022c845462000170565b84620001ac565b602080601f8311600181146200026b5760008415620002525750858301515b600019600386901b1c1916600185901b178555620001f6565b600085815260208120601f198616915b828110156200029c578886015182559484019460019091019084016200027b565b5085821015620002bb5787850151600019600388901b60f8161c191681555b5050505050600190811b01905550565b60805160a05160c05160e0516101005161012051611cf96200031b6000396000610e1d01526000610e6c01526000610e4701526000610da001526000610dca01526000610df40152611cf96000f3fe608060405234801561001057600080fd5b506004361061014d5760003560e01c806370a08231116100c3578063a9059cbb1161007c578063a9059cbb146102f3578063c3cda52014610306578063cd6dc68714610319578063d505accf1461032c578063dd62ed3e1461033f578063f1127ed81461035257600080fd5b806370a08231146102765780637ecebe001461029f5780638e539e8c146102b257806395d89b41146102c55780639ab24eb0146102cd578063a457c2d7146102e057600080fd5b80633644e515116101155780633644e515146101c757806339509351146101cf5780633a46b1a8146101e2578063587cde1e146101f55780635c19a95c146102395780636fcfff451461024e57600080fd5b806306fdde0314610152578063095ea7b31461017057806318160ddd1461019357806323b872dd146101a5578063313ce567146101b8575b600080fd5b61015a61038f565b604051610167919061199b565b60405180910390f35b61018361017e3660046119fe565b610421565b6040519015158152602001610167565b6002545b604051908152602001610167565b6101836101b3366004611a2a565b61043b565b60405160008152602001610167565b61019761045f565b6101836101dd3660046119fe565b61046e565b6101976101f03660046119fe565b610490565b610221610203366004611a6b565b6001600160a01b039081166000908152600760205260409020541690565b6040516001600160a01b039091168152602001610167565b61024c610247366004611a6b565b61050f565b005b61026161025c366004611a6b565b61051c565b60405163ffffffff9091168152602001610167565b610197610284366004611a6b565b6001600160a01b031660009081526020819052604090205490565b6101976102ad366004611a6b565b61053e565b6101976102c0366004611a88565b61055c565b61015a6105b8565b6101976102db366004611a6b565b6105c7565b6101836102ee3660046119fe565b61064e565b6101836103013660046119fe565b6106c9565b61024c610314366004611ab7565b6106d7565b61024c6103273660046119fe565b61080d565b61024c61033a366004611b11565b610838565b61019761034d366004611b7f565b61099c565b610365610360366004611bb8565b6109c7565b60408051825163ffffffff1681526020928301516001600160e01b03169281019290925201610167565b60606003805461039e90611bef565b80601f01602080910402602001604051908101604052809291908181526020018280546103ca90611bef565b80156104175780601f106103ec57610100808354040283529160200191610417565b820191906000526020600020905b8154815290600101906020018083116103fa57829003601f168201915b5050505050905090565b60003361042f818585610a4b565b60019150505b92915050565b600033610449858285610b6f565b610454858585610be9565b506001949350505050565b6000610469610d93565b905090565b60003361042f818585610481838361099c565b61048b9190611c39565b610a4b565b60004382106104e65760405162461bcd60e51b815260206004820152601f60248201527f4552433230566f7465733a20626c6f636b206e6f7420796574206d696e65640060448201526064015b60405180910390fd5b6001600160a01b03831660009081526008602052604090206105089083610eba565b9392505050565b6105193382610fb1565b50565b6001600160a01b0381166000908152600860205260408120546104359061102a565b6001600160a01b038116600090815260056020526040812054610435565b60004382106105ad5760405162461bcd60e51b815260206004820152601f60248201527f4552433230566f7465733a20626c6f636b206e6f7420796574206d696e65640060448201526064016104dd565b610435600983610eba565b60606004805461039e90611bef565b6001600160a01b038116600090815260086020526040812054801561063b576001600160a01b0383166000908152600860205260409020610609600183611c4c565b8154811061061957610619611c5f565b60009182526020909120015464010000000090046001600160e01b031661063e565b60005b6001600160e01b03169392505050565b6000338161065c828661099c565b9050838110156106bc5760405162461bcd60e51b815260206004820152602560248201527f45524332303a2064656372656173656420616c6c6f77616e63652062656c6f77604482015264207a65726f60d81b60648201526084016104dd565b6104548286868403610a4b565b60003361042f818585610be9565b834211156107275760405162461bcd60e51b815260206004820152601d60248201527f4552433230566f7465733a207369676e6174757265206578706972656400000060448201526064016104dd565b604080517fe48329057bfd03d55e49b547132e39cffd9c1820ad7b9d4c5307691425d15adf60208201526001600160a01b0388169181019190915260608101869052608081018590526000906107a1906107999060a00160405160208183030381529060405280519060200120611093565b8585856110e1565b90506107ac81611109565b86146107fa5760405162461bcd60e51b815260206004820152601960248201527f4552433230566f7465733a20696e76616c6964206e6f6e63650000000000000060448201526064016104dd565b6108048188610fb1565b50505050505050565b600a5460ff161561081d57600080fd5b600a805460ff191660011790556108348282611131565b5050565b834211156108885760405162461bcd60e51b815260206004820152601d60248201527f45524332305065726d69743a206578706972656420646561646c696e6500000060448201526064016104dd565b60007f6e71edae12b1b97f4d1f60370fef10105fa2faae0126114a169c64845d6126c98888886108b78c611109565b6040805160208101969096526001600160a01b0394851690860152929091166060840152608083015260a082015260c0810186905260e001604051602081830303815290604052805190602001209050600061091282611093565b90506000610922828787876110e1565b9050896001600160a01b0316816001600160a01b0316146109855760405162461bcd60e51b815260206004820152601e60248201527f45524332305065726d69743a20696e76616c6964207369676e6174757265000060448201526064016104dd565b6109908a8a8a610a4b565b50505050505050505050565b6001600160a01b03918216600090815260016020908152604080832093909416825291909152205490565b60408051808201909152600080825260208201526001600160a01b0383166000908152600860205260409020805463ffffffff8416908110610a0b57610a0b611c5f565b60009182526020918290206040805180820190915291015463ffffffff8116825264010000000090046001600160e01b0316918101919091529392505050565b6001600160a01b038316610aad5760405162461bcd60e51b8152602060048201526024808201527f45524332303a20617070726f76652066726f6d20746865207a65726f206164646044820152637265737360e01b60648201526084016104dd565b6001600160a01b038216610b0e5760405162461bcd60e51b815260206004820152602260248201527f45524332303a20617070726f766520746f20746865207a65726f206164647265604482015261737360f01b60648201526084016104dd565b6001600160a01b0383811660008181526001602090815260408083209487168084529482529182902085905590518481527f8c5be1e5ebec7d5bd14f71427d1e84f3dd0314c0f7b2291e5b200ac8c7c3b925910160405180910390a3505050565b6000610b7b848461099c565b90506000198114610be35781811015610bd65760405162461bcd60e51b815260206004820152601d60248201527f45524332303a20696e73756666696369656e7420616c6c6f77616e636500000060448201526064016104dd565b610be38484848403610a4b565b50505050565b6001600160a01b038316610c4d5760405162461bcd60e51b815260206004820152602560248201527f45524332303a207472616e736665722066726f6d20746865207a65726f206164604482015264647265737360d81b60648201526084016104dd565b6001600160a01b038216610caf5760405162461bcd60e51b815260206004820152602360248201527f45524332303a207472616e7366657220746f20746865207a65726f206164647260448201526265737360e81b60648201526084016104dd565b6001600160a01b03831660009081526020819052604090205481811015610d275760405162461bcd60e51b815260206004820152602660248201527f45524332303a207472616e7366657220616d6f756e7420657863656564732062604482015265616c616e636560d01b60648201526084016104dd565b6001600160a01b03848116600081815260208181526040808320878703905593871680835291849020805487019055925185815290927fddf252ad1be2c89b69c2b068fc378daa952ba7f163c4a11628f55a4df523b3ef910160405180910390a3610be3848484611140565b6000306001600160a01b037f000000000000000000000000000000000000000000000000000000000000000016148015610dec57507f000000000000000000000000000000000000000000000000000000000000000046145b15610e1657507f000000000000000000000000000000000000000000000000000000000000000090565b50604080517f00000000000000000000000000000000000000000000000000000000000000006020808301919091527f0000000000000000000000000000000000000000000000000000000000000000828401527f000000000000000000000000000000000000000000000000000000000000000060608301524660808301523060a0808401919091528351808403909101815260c0909201909252805191012090565b815460009081816005811115610f14576000610ed58461114b565b610edf9085611c4c565b600088815260209020909150869082015463ffffffff161115610f0457809150610f12565b610f0f816001611c39565b92505b505b80821015610f61576000610f288383611233565b600088815260209020909150869082015463ffffffff161115610f4d57809150610f5b565b610f58816001611c39565b92505b50610f14565b8015610f9b57610f8486610f76600184611c4c565b600091825260209091200190565b5464010000000090046001600160e01b0316610f9e565b60005b6001600160e01b03169695505050505050565b6001600160a01b038281166000818152600760208181526040808420805485845282862054949093528787166001600160a01b03198416811790915590519190951694919391928592917f3134e8a2e6d97e929a7e54011ea5485d7d196dd5f0ba4d4ef95803e8e3fc257f9190a4610be382848361124e565b600063ffffffff82111561108f5760405162461bcd60e51b815260206004820152602660248201527f53616665436173743a2076616c756520646f65736e27742066697420696e203360448201526532206269747360d01b60648201526084016104dd565b5090565b60006104356110a0610d93565b8360405161190160f01b6020820152602281018390526042810182905260009060620160405160208183030381529060405280519060200120905092915050565b60008060006110f28787878761138b565b915091506110ff8161144f565b5095945050505050565b6001600160a01b03811660009081526005602052604090208054600181018255905b50919050565b6108348282611599565b505050565b61113b838383611623565b60008160000361115d57506000919050565b6000600161116a84611655565b901c6001901b9050600181848161118357611183611c75565b048201901c9050600181848161119b5761119b611c75565b048201901c905060018184816111b3576111b3611c75565b048201901c905060018184816111cb576111cb611c75565b048201901c905060018184816111e3576111e3611c75565b048201901c905060018184816111fb576111fb611c75565b048201901c9050600181848161121357611213611c75565b048201901c90506105088182858161122d5761122d611c75565b046116e9565b60006112426002848418611c8b565b61050890848416611c39565b816001600160a01b0316836001600160a01b0316141580156112705750600081115b1561113b576001600160a01b038316156112fe576001600160a01b038316600090815260086020526040812081906112ab906116ff8561170b565b91509150846001600160a01b03167fdec2bacdd2f05b59de34da9b523dff8be42e5e38e818c82fdb0bae774387a72483836040516112f3929190918252602082015260400190565b60405180910390a250505b6001600160a01b0382161561113b576001600160a01b038216600090815260086020526040812081906113349061185f8561170b565b91509150836001600160a01b03167fdec2bacdd2f05b59de34da9b523dff8be42e5e38e818c82fdb0bae774387a724838360405161137c929190918252602082015260400190565b60405180910390a25050505050565b6000807f7fffffffffffffffffffffffffffffff5d576e7357a4501ddfe92f46681b20a08311156113c25750600090506003611446565b6040805160008082526020820180845289905260ff881692820192909252606081018690526080810185905260019060a0016020604051602081039080840390855afa158015611416573d6000803e3d6000fd5b5050604051601f1901519150506001600160a01b03811661143f57600060019250925050611446565b9150600090505b94509492505050565b600081600481111561146357611463611cad565b0361146b5750565b600181600481111561147f5761147f611cad565b036114cc5760405162461bcd60e51b815260206004820152601860248201527f45434453413a20696e76616c6964207369676e6174757265000000000000000060448201526064016104dd565b60028160048111156114e0576114e0611cad565b0361152d5760405162461bcd60e51b815260206004820152601f60248201527f45434453413a20696e76616c6964207369676e6174757265206c656e6774680060448201526064016104dd565b600381600481111561154157611541611cad565b036105195760405162461bcd60e51b815260206004820152602260248201527f45434453413a20696e76616c6964207369676e6174757265202773272076616c604482015261756560f01b60648201526084016104dd565b6115a3828261186b565b6002546001600160e01b0310156116155760405162461bcd60e51b815260206004820152603060248201527f4552433230566f7465733a20746f74616c20737570706c79207269736b73206f60448201526f766572666c6f77696e6720766f74657360801b60648201526084016104dd565b610be3600961185f8361170b565b6001600160a01b0383811660009081526007602052604080822054858416835291205461113b9291821691168361124e565b600080608083901c1561166a57608092831c92015b604083901c1561167c57604092831c92015b602083901c1561168e57602092831c92015b601083901c156116a057601092831c92015b600883901c156116b257600892831c92015b600483901c156116c457600492831c92015b600283901c156116d657600292831c92015b600183901c156104355760010192915050565b60008183106116f85781610508565b5090919050565b60006105088284611c4c565b825460009081908181156117585761172887610f76600185611c4c565b60408051808201909152905463ffffffff8116825264010000000090046001600160e01b0316602082015261176d565b60408051808201909152600080825260208201525b905080602001516001600160e01b0316935061178d84868863ffffffff16565b92506000821180156117a55750805163ffffffff1643145b156117ea576117b383611932565b6117c288610f76600186611c4c565b80546001600160e01b03929092166401000000000263ffffffff909216919091179055611855565b8660405180604001604052806117ff4361102a565b63ffffffff16815260200161181386611932565b6001600160e01b0390811690915282546001810184556000938452602093849020835194909301519091166401000000000263ffffffff909316929092179101555b5050935093915050565b60006105088284611c39565b6001600160a01b0382166118c15760405162461bcd60e51b815260206004820152601f60248201527f45524332303a206d696e7420746f20746865207a65726f20616464726573730060448201526064016104dd565b80600260008282546118d39190611c39565b90915550506001600160a01b038216600081815260208181526040808320805486019055518481527fddf252ad1be2c89b69c2b068fc378daa952ba7f163c4a11628f55a4df523b3ef910160405180910390a361083460008383611140565b60006001600160e01b0382111561108f5760405162461bcd60e51b815260206004820152602760248201527f53616665436173743a2076616c756520646f65736e27742066697420696e20326044820152663234206269747360c81b60648201526084016104dd565b600060208083528351808285015260005b818110156119c8578581018301518582016040015282016119ac565b506000604082860101526040601f19601f8301168501019250505092915050565b6001600160a01b038116811461051957600080fd5b60008060408385031215611a1157600080fd5b8235611a1c816119e9565b946020939093013593505050565b600080600060608486031215611a3f57600080fd5b8335611a4a816119e9565b92506020840135611a5a816119e9565b929592945050506040919091013590565b600060208284031215611a7d57600080fd5b8135610508816119e9565b600060208284031215611a9a57600080fd5b5035919050565b803560ff81168114611ab257600080fd5b919050565b60008060008060008060c08789031215611ad057600080fd5b8635611adb816119e9565b95506020870135945060408701359350611af760608801611aa1565b92506080870135915060a087013590509295509295509295565b600080600080600080600060e0888a031215611b2c57600080fd5b8735611b37816119e9565b96506020880135611b47816119e9565b95506040880135945060608801359350611b6360808901611aa1565b925060a0880135915060c0880135905092959891949750929550565b60008060408385031215611b9257600080fd5b8235611b9d816119e9565b91506020830135611bad816119e9565b809150509250929050565b60008060408385031215611bcb57600080fd5b8235611bd6816119e9565b9150602083013563ffffffff81168114611bad57600080fd5b600181811c90821680611c0357607f821691505b60208210810361112b57634e487b7160e01b600052602260045260246000fd5b634e487b7160e01b600052601160045260246000fd5b8082018082111561043557610435611c23565b8181038181111561043557610435611c23565b634e487b7160e01b600052603260045260246000fd5b634e487b7160e01b600052601260045260246000fd5b600082611ca857634e487b7160e01b600052601260045260246000fd5b500490565b634e487b7160e01b600052602160045260246000fdfea2646970667358221220b5cedccc33fecd44101dd310162eb82251ed62452a662a7b809fb566cdc82a7f64736f6c63430008110033",
  "linkReferences": {},
  "deployedLinkReferences": {}
}